S0140000736E616B657061747465726E2E7372656300
S11300000C942A000C9434000C9434000C943400A6
S11300100C9434000C9434000C9434000C9434008C
S11300200C9434000C9434000C9434000C9434007C
S11300300C9434000C9434000C9434000C9434006C
S11300400C9434000C9434000C9434000C9434005C
S11300500C94340011241FBECFE5D4E0DEBFCDBF25
S11300600E9436000C94C4000C9400008FEF81BBF6
S113007084BB87BB8ABB12BA15BA18BA1BBA84E010
S11300809BB3990F9F5F9BBB2FE936E891E021500A
S113009030409040E1F700C00000815089F79BB3E5
S11300A0990F9BBB2FE936E891E0215030409040F6
S11300B0E1F700C000008F5F843089F79BB3990F8C
S11300C09BBB98B39695905898BB2FE936E891E07E
S11300D0215030409040E1F700C00000815071F79A
S11300E098B3969598BB2FE936E891E021503040BB
S11300F09040E1F700C000008F5F843089F798B327
S1130100969598BB95B3990F9F5F95BB2FE936E8F9
S113011091E0215030409040E1F700C00000815050
S113012071F795B3990F95BB2FE936E891E021500B
S113013030409040E1F700C000008F5F843089F7C1
S113014095B3990F95BB92B39695905892BB2FE9AE
S113015036E891E0215030409040E1F700C00000C3
S1130160815071F788E092B3969592BB2FE936E8F7
S113017091E0215030409040E1F700C000008150F0
S10F018091F780E090E00895F894FFCF20
S9030000FC
